:020000040800F2
:1000000000800120270600082506000825060008B4
:100010002506000825060008250600080000000047
:10002000000000000000000000000000250600089D
:100030002506000800000000250600082506000827
:1000400025060008250600082506000825060008E4
:1000500025060008250600082506000825060008D4
:1000600025060008250600082506000825060008C4
:1000700025060008250600082506000825060008B4
:1000800025060008250600082506000800000000D7
:10009000000000000000000000000000250600082D
:1000A0002506000825060008250600082506000884
:1000B0002506000825060008250600082506000874
:1000C0002506000825060008250600082506000864
:1000D0002506000825060008250600080000000087
:1000E0002506000825060008250600080000000077
:1000F00000000000000000000000000025060008CD
:100100000000000025060008250600082506000856
:1001100000000000000000000000000000000000DF
:100120002506000825060008250600082506000803
:10013000250600080000000000000000000000008C
:10014000000000000000000000000000250600087C
:1001500025060008250600082506000825060008D3
:100160002506000825060008000000000000000029
:10017000000000000000000000000000000000007F
:10018000000000002506000800000000000000003C
:1001900025060008002313B5194644F61F64834260
:1001A00009D00191019AA24203D8019A0132019229
:1001B000F8E70133F3E702B010BD00002DE98048F5
:1001C000AB4BAC4DADF5017D00240093A3F133732F
:1001D000A3F55033A3F51C730193A74B0293A74BD0
:1001E00003936B465DF82410D86862594A40C1B247
:1001F00005EB81010434896A01F47F414A40010E14
:1002000005EB8101282C91F8281082EA0102C0F345
:10021000074105EB81018E6AC0F3072105EB8101DF
:1002200006F07F46896A82EA060201F47F0181EACC
:1002300002015A68196182EA010299685A6182EAE8
:1002400001029A6182EA0002DA618A4801D0103321
:10025000C8E7DFF830A2DFF83092894EDFF82CE2F1
:10026000DFF82CC208AD0DF1C00B04464FEA1E6248
:100270005FFA8AF700EB820200EB8707D2F82814B6
:10028000D7F828287B4B514055F8102C4A40C6F32C
:10029000074100EB81015FFA8EF8D1F8281C4A4033
:1002A000C9F307210CEB810100EB880851F8D01C41
:1002B0004A40310E00EB81012035D1F82874D8F87E
:1002C00028184F4055F82C1C7940C9F3074700EB1C
:1002D00087074FEA1968D7F8287C7940CAF30727BF
:1002E0000CEB870700EB880857F8D07CD8F82884F7
:1002F0007940F7B200EB87075FFA89F9D7F82878D9
:1003000088EA070855F8287C88EA0707CAF30748EF
:1003100000EB88084FEA1A6AD8F8288C87EA0807A1
:10032000CEF307280CEB8808CEF3074E58F8D08C94
:1003300087EA080800EB8A0700EB890AD7F82894B7
:10034000DAF8287800EB8E0EC6F3072689EA07094B
:100350000CEB860655F8247CDEF828EC56F8D06CB9
:1003600089EA070787EA0E077740AB454FEA126E26
:10037000FEB200F08F8004EB8E0E04EB8603DEF8F5
:100380002864D3F8283886EA030EC1F3074604EB45
:10039000860655F8203CD6F8286C8EEA0303734095
:1003A000C8F307260CEB86065FFA82F956F8D06C84
:1003B00083EA060E0B0E04EB830304EB8909D3F8E2
:1003C0002864D9F828385E4055F81C3C7340C8F3BF
:1003D000074604EB86065FFA81FAD6F8286C73406C
:1003E000C7F307260CEB860604EB8A0A56F8D06C96
:1003F0005E404FEA186304EB83035FFA88F8D3F892
:100400002894DAF8283889EA030955F8183C89EA6B
:100410000303C7F3074904EB8909C2F3072AD9F894
:10042000289C0CEB8A0A3F0E83EA090304EB87073A
:100430005AF8D09CD7F8287404EB880883EA090995
:10044000C2F30742D8F8283804EB820287EA030A8D
:10045000C1F3072155F8143CD2F8282C0CEB81018C
:100460008AEA0303534051F8D02C83EA020AFDE6DE
:1004700016157E2B140700088815F7AB3C4FCF09E3
:10048000E793EF697D0E8E48C954B6EA57543F6A28
:100490000C18000803EB8E0E03EB8606DEF82840EE
:1004A00096F8280004F07F44444028984440C1F363
:1004B000074003EB8000806A00F47F004440C8F3EB
:1004C000072003EB8000806A00F47F4044405148DD
:1004D000250E0570250C4570C470250A0C0E85701C
:1004E00003EB8404D5B203EB8505A46A95F8286074
:1004F00004F07F4484EA0605299C6C40C8F3074554
:1005000003EB8505AD6A05F47F056540C7F3072455
:1005100003EB8404A46A04F47F446C40250E057147
:10052000250C4571C471250A4FEA1864857103EBE7
:100530008404CDB203EB8505A46A95F8286004F025
:100540007F4484EA06052A9C6C40C7F3074503EB09
:1005500085053F0EAD6A05F47F056540C2F30724AB
:1005600003EB840403EB8707A46A04F47F446C4024
:10057000250E5FFA88F8057203EB8808250C457292
:10058000C472250AC2F30742BC6A857203EB820279
:1005900098F82850926AC1F3072104F07F4403EBD6
:1005A000810365402B9C9B6A1B496C4002F47F02CF
:1005B000624003F47F4353401A0E02731A0C4273D5
:1005C0001A0A8273C3730022835C545C0132102ABE
:1005D00004D0A342F8D04FF4FA6404E0A34214BF5D
:1005E0004FF4FA6414240D4A136B43F001031363B0
:1005F0000B4B1A6842F480621A601D4620274FF4A4
:1006000000162046AF61FFF7C5FDAE612046FFF73B
:10061000C1FDF6E7000000203C1B00080038024046
:1006200000000240FEE700F005F800F021F8FFF7B7
:10063000C5FDFEE7094B0A4A0021934202D243F866
:10064000041BFAE7074A084B08498B4204D252F8C8
:10065000040F43F8040BF8E7704700BF00000020C8
:1006600010000020481B00080000002000000020AF
:10067000234A136C43F080531364224B196841F4EE
:1006800000411960114608681D4A8007FBD51968AA
:1006900041F080011960136823F0807313601368C0
:1006A000174913F0007FFAD1174B4B600B6843F0EA
:1006B00080730B600A68124B9001FBD513490A68DE
:1006C00042F4407242F002020A609A6842F002026A
:1006D0009A601A4691680A4B0907FBD59A6822F07E
:1006E000F0029A609A6842F480529A609A6822F402
:1006F00060429A60064A536843F0070353607047AC
:10070000003802400070004010540107003C0240D5
:10071000002004E0000000010000000200000004CE
:100720000000000800000010000000200000004051
:10073000000000800000001B00000036636363635C
:100740007C7C7C7C777777777B7B7B7BF2F2F2F229
:100750006B6B6B6B6F6F6F6FC5C5C5C5303030305D
:1007600001010101676767672B2B2B2BFEFEFEFE45
:10077000D7D7D7D7ABABABAB76767676CACACACA71
:1007800082828282C9C9C9C97D7D7D7DFAFAFAFA61
:100790005959595947474747F0F0F0F0ADADADAD65
:1007A000D4D4D4D4A2A2A2A2AFAFAFAF9C9C9C9C45
:1007B000A4A4A4A472727272C0C0C0C0B7B7B7B705
:1007C000FDFDFDFD93939393262626263636363679
:1007D0003F3F3F3FF7F7F7F7CCCCCCCC3434343441
:1007E000A5A5A5A5E5E5E5E5F1F1F1F17171717159
:1007F000D8D8D8D831313131151515150404040471
:10080000C7C7C7C723232323C3C3C3C318181818D4
:1008100096969696050505059A9A9A9A07070707E8
:100820001212121280808080E2E2E2E2EBEBEBEB4C
:1008300027272727B2B2B2B275757575090909095C
:10084000838383832C2C2C2C1A1A1A1A1B1B1B1B18
:100850006E6E6E6E5A5A5A5AA0A0A0A052525252B0
:100860003B3B3B3BD6D6D6D6B3B3B3B329292929D4
:10087000E3E3E3E32F2F2F2F8484848453535353D4
:10088000D1D1D1D100000000EDEDEDED20202020F0
:10089000FCFCFCFCB1B1B1B15B5B5B5B6A6A6A6A90
:1008A000CBCBCBCBBEBEBEBE393939394A4A4A4A18
:1008B0004C4C4C4C58585858CFCFCFCFD0D0D0D02C
:1008C000EFEFEFEFAAAAAAAAFBFBFBFB43434343CC
:1008D0004D4D4D4D333333338585858545454545F0
:1008E000F9F9F9F9020202027F7F7F7F50505050E0
:1008F0003C3C3C3C9F9F9F9FA8A8A8A851515151A8
:10090000A3A3A3A3404040408F8F8F8F92929292D7
:100910009D9D9D9D38383838F5F5F5F5BCBCBCBCBF
:10092000B6B6B6B6DADADADA2121212110101010C3
:10093000FFFFFFFFF3F3F3F3D2D2D2D2CDCDCDCD73
:100940000C0C0C0C13131313ECECECEC5F5F5F5FFF
:10095000979797974444444417171717C4C4C4C4BF
:10096000A7A7A7A77E7E7E7E3D3D3D3D646464646F
:100970005D5D5D5D19191919737373736060606053
:10098000818181814F4F4F4FDCDCDCDC222222222F
:100990002A2A2A2A90909090888888884646464637
:1009A000EEEEEEEEB8B8B8B814141414DEDEDEDEE7
:1009B0005E5E5E5E0B0B0B0BDBDBDBDBE0E0E0E0A7
:1009C000323232323A3A3A3A0A0A0A0A494949492B
:1009D00006060606242424245C5C5C5CC2C2C2C2F7
:1009E000D3D3D3D3ACACACAC62626262919191913F
:1009F00095959595E4E4E4E479797979E7E7E7E793
:100A0000C8C8C8C8373737376D6D6D6D8D8D8D8D02
:100A1000D5D5D5D54E4E4E4EA9A9A9A96C6C6C6CF6
:100A200056565656F4F4F4F4EAEAEAEA6565656562
:100A30007A7A7A7AAEAEAEAE08080808BABABABA0E
:100A400078787878252525252E2E2E2E1C1C1C1C0A
:100A5000A6A6A6A6B4B4B4B4C6C6C6C6E8E8E8E876
:100A6000DDDDDDDD747474741F1F1F1F4B4B4B4B9A
:100A7000BDBDBDBD8B8B8B8B8A8A8A8A707070706E
:100A80003E3E3E3EB5B5B5B56666666648484848E2
:100A900003030303F6F6F6F60E0E0E0E61616161B6
:100AA0003535353557575757B9B9B9B9868686861A
:100AB000C1C1C1C11D1D1D1D9E9E9E9EE1E1E1E1C2
:100AC000F8F8F8F8989898981111111169696969FE
:100AD000D9D9D9D98E8E8E8E949494949B9B9B9BBE
:100AE0001E1E1E1E87878787E9E9E9E9CECECECE96
:100AF0005555555528282828DFDFDFDF8C8C8C8C56
:100B0000A1A1A1A1898989890D0D0D0DBFBFBFBF0D
:100B1000E6E6E6E642424242686868684141414191
:100B2000999999992D2D2D2D0F0F0F0FB0B0B0B0B1
:100B300054545454BBBBBBBB16161616A56363C6F0
:100B4000847C7CF8997777EE8D7B7BF60DF2F2FF53
:100B5000BD6B6BD6B16F6FDE54C5C5915030306040
:100B600003010102A96767CE7D2B2B5619FEFEE714
:100B700062D7D7B5E6ABAB4D9A7676EC45CACA8F4D
:100B80009D82821F40C9C989877D7DFA15FAFAEFD7
:100B9000EB5959B2C947478E0BF0F0FBECADAD41B4
:100BA00067D4D4B3FDA2A25FEAAFAF45BF9C9C233C
:100BB000F7A4A453967272E45BC0C09BC2B7B7752A
:100BC0001CFDFDE1AE93933D6A26264C5A36366CE9
:100BD000413F3F7E02F7F7F54FCCCC835C3434685D
:100BE000F4A5A55134E5E5D108F1F1F9937171E26D
:100BF00073D8D8AB533131623F15152A0C04040861
:100C000052C7C795652323465EC3C39D2818183075
:100C1000A19696370F05050AB59A9A2F0907070E70
:100C2000361212249B80801B3DE2E2DF26EBEBCDE7
:100C30006927274ECDB2B27F9F7575EA1B0909124D
:100C40009E83831D742C2C582E1A1A342D1B1B3690
:100C5000B26E6EDCEE5A5AB4FBA0A05BF65252A400
:100C60004D3B3B7661D6D6B7CEB3B37D7B292952B7
:100C70003EE3E3DD712F2F5E97848413F55353A673
:100C800068D1D1B9000000002CEDEDC160202040FA
:100C90001FFCFCE3C8B1B179ED5B5BB6BE6A6AD4F8
:100CA00046CBCB8DD9BEBE674B393972DE4A4A94EA
:100CB000D44C4C98E85858B04ACFCF856BD0D0BBB5
:100CC0002AEFEFC5E5AAAA4F16FBFBEDC543438605
:100CD000D74D4D9A5533336694858511CF45458A56
:100CE00010F9F9E906020204817F7FFEF05050A05E
:100CF000443C3C78BA9F9F25E3A8A84BF35151A2EE
:100D0000FEA3A35DC04040808A8F8F05AD92923FC5
:100D1000BC9D9D214838387004F5F5F1DFBCBC63FB
:100D2000C1B6B67775DADAAF6321214230101020F0
:100D30001AFFFFE50EF3F3FD6DD2D2BF4CCDCD818E
:100D4000140C0C18351313262FECECC3E15F5FBEB7
:100D5000A2979735CC4444883917172E57C4C493AB
:100D6000F2A7A755827E7EFC473D3D7AAC6464C8FD
:100D7000E75D5DBA2B191932957373E6A06060C008
:100D800098818119D14F4F9E7FDCDCA366222244DB
:100D90007E2A2A54AB90903B8388880BCA46468CA7
:100DA00029EEEEC7D3B8B86B3C14142879DEDEA761
:100DB000E25E5EBC1D0B0B1676DBDBAD3BE0E0DBE1
:100DC000563232644E3A3A741E0A0A14DB4949928A
:100DD0000A06060C6C242448E45C5CB85DC2C29F21
:100DE0006ED3D3BDEFACAC43A66262C4A891913977
:100DF000A495953137E4E4D38B7979F232E7E7D5DE
:100E000043C8C88B5937376EB76D6DDA8C8D8D013D
:100E100064D5D5B1D24E4E9CE0A9A949B46C6CD82A
:100E2000FA5656AC07F4F4F325EAEACFAF6565CA83
:100E30008E7A7AF4E9AEAE4718080810D5BABA6FC0
:100E4000887878F06F25254A722E2E5C241C1C3879
:100E5000F1A6A657C7B4B47351C6C69723E8E8CB2A
:100E60007CDDDDA19C7474E8211F1F3EDD4B4B9699
:100E7000DCBDBD61868B8B0D858A8A0F907070E01A
:100E8000423E3E7CC4B5B571AA6666CCD84848904F
:100E90000503030601F6F6F7120E0E1CA36161C2EC
:100EA0005F35356AF95757AED0B9B969918686175B
:100EB00058C1C199271D1D3AB99E9E2738E1E1D935
:100EC00013F8F8EBB398982B33111122BB6969D250
:100ED00070D9D9A9898E8E07A7949433B69B9B2D80
:100EE000221E1E3C9287871520E9E9C949CECE878C
:100EF000FF5555AA782828507ADFDFA58F8C8C0300
:100F0000F8A1A15980898909170D0D1ADABFBF65AB
:100F100031E6E6D7C6424284B86868D0C341418210
:100F2000B0999929772D2D5A110F0F1ECBB0B07B98
:100F3000FC5454A8D6BBBB6D3A16162CC6A56363E9
:100F4000F8847C7CEE997777F68D7B7BFF0DF2F24F
:100F5000D6BD6B6BDEB16F6F9154C5C5605030303C
:100F600002030101CEA96767567D2B2BE719FEFE10
:100F7000B562D7D74DE6ABABEC9A76768F45CACA49
:100F80001F9D82828940C9C9FA877D7DEF15FAFAD3
:100F9000B2EB59598EC94747FB0BF0F041ECADADB0
:100FA000B367D4D45FFDA2A245EAAFAF23BF9C9C38
:100FB00053F7A4A4E49672729B5BC0C075C2B7B726
:100FC000E11CFDFD3DAE93934C6A26266C5A3636E5
:100FD0007E413F3FF502F7F7834FCCCC685C343459
:100FE00051F4A5A5D134E5E5F908F1F1E293717169
:100FF000AB73D8D8625331312A3F1515080C04045D
:101000009552C7C7466523239D5EC3C33028181871
:1010100037A196960A0F05052FB59A9A0E0907076C
:10102000243612121B9B8080DF3DE2E2CD26EBEBE3
:101030004E6927277FCDB2B2EA9F7575121B090949
:101040001D9E838358742C2C342E1A1A362D1B1B8C
:10105000DCB26E6EB4EE5A5A5BFBA0A0A4F65252FC
:10106000764D3B3BB761D6D67DCEB3B3527B2929B3
:10107000DD3EE3E35E712F2F13978484A6F553536F
:10108000B968D1D100000000C12CEDED40602020F6
:10109000E31FFCFC79C8B1B1B6ED5B5BD4BE6A6AF4
:1010A0008D46CBCB67D9BEBE724B393994DE4A4AE6
:1010B00098D44C4CB0E85858854ACFCFBB6BD0D0B1
:1010C000C52AEFEF4FE5AAAAED16FBFB86C5434301
:1010D0009AD74D4D66553333119485858ACF454552
:1010E000E910F9F904060202FE817F7FA0F050505A
:1010F00078443C3C25BA9F9F4BE3A8A8A2F35151EA
:101100005DFEA3A380C04040058A8F8F3FAD9292C1
:1011100021BC9D9D70483838F104F5F563DFBCBCF7
:1011200077C1B6B6AF75DADA4263212120301010EC
:10113000E51AFFFFFD0EF3F3BF6DD2D2814CCDCD8A
:1011400018140C0C26351313C32FECECBEE15F5FB3
:1011500035A2979788CC44442E3917179357C4C4A7
:1011600055F2A7A7FC827E7E7A473D3DC8AC6464F9
:10117000BAE75D5D322B1919E6957373C0A0606004
:10118000199881819ED14F4FA37FDCDC44662222D7
:10119000547E2A2A3BAB90900B8388888CCA4646A3
:1011A000C729EEEE6BD3B8B8283C1414A779DEDE5D
:1011B000BCE25E5E161D0B0BAD76DBDBDB3BE0E0DD
:1011C00064563232744E3A3A141E0A0A92DB494986
:1011D0000C0A0606486C2424B8E45C5C9F5DC2C21D
:1011E000BD6ED3D343EFACACC4A6626239A8919173
:1011F00031A49595D337E4E4F28B7979D532E7E7DA
:101200008B43C8C86E593737DAB76D6D018C8D8D39
:10121000B164D5D59CD24E4E49E0A9A9D8B46C6C26
:10122000ACFA5656F307F4F4CF25EAEACAAF65657F
:10123000F48E7A7A47E9AEAE101808086FD5BABABC
:10124000F08878784A6F25255C722E2E38241C1C75
:1012500057F1A6A673C7B4B49751C6C6CB23E8E826
:10126000A17CDDDDE89C74743E211F1F96DD4B4B95
:1012700061DCBDBD0D868B8B0F858A8AE090707016
:101280007C423E3E71C4B5B5CCAA666690D848484B
:1012900006050303F701F6F61C120E0EC2A36161E8
:1012A0006A5F3535AEF9575769D0B9B91791868657
:1012B0009958C1C13A271D1D27B99E9ED938E1E131
:1012C000EB13F8F82BB3989822331111D2BB69694C
:1012D000A970D9D907898E8E33A794942DB69B9B7C
:1012E0003C221E1E15928787C920E9E98749CECE88
:1012F000AAFF555550782828A57ADFDF038F8C8CFC
:1013000059F8A1A1098089891A170D0D65DABFBFA7
:10131000D731E6E684C64242D0B8686882C341410C
:1013200029B099995A772D2D1E110F0F7BCBB0B094
:10133000A8FC54546DD6BBBB2C3A16166363C6A5E5
:101340007C7CF8847777EE997B7BF68DF2F2FF0D4B
:101350006B6BD6BD6F6FDEB1C5C591543030605038
:10136000010102036767CEA92B2B567DFEFEE7190C
:10137000D7D7B562ABAB4DE67676EC9ACACA8F4545
:1013800082821F9DC9C989407D7DFA87FAFAEF15CF
:101390005959B2EB47478EC9F0F0FB0BADAD41ECAC
:1013A000D4D4B367A2A25FFDAFAF45EA9C9C23BF34
:1013B000A4A453F77272E496C0C09B5BB7B775C222
:1013C000FDFDE11C93933DAE26264C6A36366C5AE1
:1013D0003F3F7E41F7F7F502CCCC834F3434685C55
:1013E000A5A551F4E5E5D134F1F1F9087171E29365
:1013F000D8D8AB733131625315152A3F0404080C59
:10140000C7C7955223234665C3C39D5E181830286D
:10141000969637A105050A0F9A9A2FB507070E0968
:101420001212243680801B9BE2E2DF3DEBEBCD26DF
:1014300027274E69B2B27FCD7575EA9F0909121B45
:1014400083831D9E2C2C58741A1A342E1B1B362D88
:101450006E6EDCB25A5AB4EEA0A05BFB5252A4F6F8
:101460003B3B764DD6D6B761B3B37DCE2929527BAF
:10147000E3E3DD3E2F2F5E71848413975353A6F56B
:10148000D1D1B96800000000EDEDC12C20204060F2
:10149000FCFCE31FB1B179C85B5BB6ED6A6AD4BEF0
:1014A000CBCB8D46BEBE67D93939724B4A4A94DEE2
:1014B0004C4C98D45858B0E8CFCF854AD0D0BB6BAD
:1014C000EFEFC52AAAAA4FE5FBFBED16434386C5FD
:1014D0004D4D9AD7333366558585119445458ACF4E
:1014E000F9F9E910020204067F7FFE815050A0F056
:1014F0003C3C78449F9F25BAA8A84BE35151A2F3E6
:10150000A3A35DFE404080C08F8F058A92923FADBD
:101510009D9D21BC38387048F5F5F104BCBC63DFF3
:10152000B6B677C1DADAAF752121426310102030E8
:10153000FFFFE51AF3F3FD0ED2D2BF6DCDCD814C86
:101540000C0C181413132635ECECC32F5F5FBEE1AF
:10155000979735A2444488CC17172E39C4C49357A3
:10156000A7A755F27E7EFC823D3D7A476464C8ACF5
:101570005D5DBAE71919322B7373E6956060C0A000
:10158000818119984F4F9ED1DCDCA37F22224466D3
:101590002A2A547E90903BAB88880B8346468CCA9F
:1015A000EEEEC729B8B86BD31414283CDEDEA77959
:1015B0005E5EBCE20B0B161DDBDBAD76E0E0DB3BD9
:1015C000323264563A3A744E0A0A141E494992DB82
:1015D00006060C0A2424486C5C5CB8E4C2C29F5D19
:1015E000D3D3BD6EACAC43EF6262C4A6919139A86F
:1015F000959531A4E4E4D3377979F28BE7E7D532D6
:10160000C8C88B4337376E596D6DDAB78D8D018C35
:10161000D5D5B1644E4E9CD2A9A949E06C6CD8B422
:101620005656ACFAF4F4F307EAEACF256565CAAF7B
:101630007A7AF48EAEAE47E908081018BABA6FD5B8
:101640007878F08825254A6F2E2E5C721C1C382471
:10165000A6A657F1B4B473C7C6C69751E8E8CB2322
:10166000DDDDA17C7474E89C1F1F3E214B4B96DD91
:10167000BDBD61DC8B8B0D868A8A0F857070E09012
:101680003E3E7C42B5B571C46666CCAA484890D847
:1016900003030605F6F6F7010E0E1C126161C2A3E4
:1016A00035356A5F5757AEF9B9B969D08686179153
:1016B000C1C199581D1D3A279E9E27B9E1E1D9382D
:1016C000F8F8EB1398982BB3111122336969D2BB48
:1016D000D9D9A9708E8E0789949433A79B9B2DB678
:1016E0001E1E3C2287871592E9E9C920CECE874984
:1016F0005555AAFF28285078DFDFA57A8C8C038FF8
:10170000A1A159F8898909800D0D1A17BFBF65DAA3
:10171000E6E6D731424284C66868D0B8414182C308
:10172000999929B02D2D5A770F0F1E11B0B07BCB90
:101730005454A8FCBBBB6DD616162C3A63C6A563E1
:101740007CF8847C77EE99777BF68D7BF2FF0DF247
:101750006BD6BD6B6FDEB16FC59154C53060503034
:101760000102030167CEA9672B567D2BFEE719FE08
:10177000D7B562D7AB4DE6AB76EC9A76CA8F45CA41
:10178000821F9D82C98940C97DFA877DFAEF15FACB
:1017900059B2EB59478EC947F0FB0BF0AD41ECADA8
:1017A000D4B367D4A25FFDA2AF45EAAF9C23BF9C30
:1017B000A453F7A472E49672C09B5BC0B775C2B71E
:1017C000FDE11CFD933DAE93264C6A26366C5A36DD
:1017D0003F7E413FF7F502F7CC834FCC34685C3451
:1017E000A551F4A5E5D134E5F1F908F171E2937161
:1017F000D8AB73D831625331152A3F1504080C0455
:10180000C79552C723466523C39D5EC31830281869
:101810009637A196050A0F059A2FB59A070E090764
:1018200012243612801B9B80E2DF3DE2EBCD26EBDB
:10183000274E6927B27FCDB275EA9F7509121B0941
:10184000831D9E832C58742C1A342E1A1B362D1B84
:101850006EDCB26E5AB4EE5AA05BFBA052A4F652F4
:101860003B764D3BD6B761D6B37DCEB329527B29AB
:10187000E3DD3EE32F5E712F8413978453A6F55367
:10188000D1B968D100000000EDC12CED20406020EE
:10189000FCE31FFCB179C8B15BB6ED5B6AD4BE6AEC
:1018A000CB8D46CBBE67D9BE39724B394A94DE4ADE
:1018B0004C98D44C58B0E858CF854ACFD0BB6BD0A9
:1018C000EFC52AEFAA4FE5AAFBED16FB4386C543F9
:1018D0004D9AD74D3366553385119485458ACF454A
:1018E000F9E910F9020406027FFE817F50A0F05052
:1018F0003C78443C9F25BA9FA84BE3A851A2F351E2
:10190000A35DFEA34080C0408F058A8F923FAD92B9
:101910009D21BC9D38704838F5F104F5BC63DFBCEF
:10192000B677C1B6DAAF75DA2142632110203010E4
:10193000FFE51AFFF3FD0EF3D2BF6DD2CD814CCD82
:101940000C18140C13263513ECC32FEC5FBEE15FAB
:101950009735A2974488CC44172E3917C49357C49F
:10196000A755F2A77EFC827E3D7A473D64C8AC64F1
:101970005DBAE75D19322B1973E6957360C0A060FC
:10198000811998814F9ED14FDCA37FDC22446622CF
:101990002A547E2A903BAB90880B8388468CCA469B
:1019A000EEC729EEB86BD3B814283C14DEA779DE55
:1019B0005EBCE25E0B161D0BDBAD76DBE0DB3BE0D5
:1019C000326456323A744E3A0A141E0A4992DB497E
:1019D000060C0A0624486C245CB8E45CC29F5DC215
:1019E000D3BD6ED3AC43EFAC62C4A6629139A8916B
:1019F0009531A495E4D337E479F28B79E7D532E7D2
:101A0000C88B43C8376E59376DDAB76D8D018C8D31
:101A1000D5B164D54E9CD24EA949E0A96CD8B46C1E
:101A200056ACFA56F4F307F4EACF25EA65CAAF6577
:101A30007AF48E7AAE47E9AE08101808BA6FD5BAB4
:101A400078F08878254A6F252E5C722E1C38241C6D
:101A5000A657F1A6B473C7B4C69751C6E8CB23E81E
:101A6000DDA17CDD74E89C741F3E211F4B96DD4B8D
:101A7000BD61DCBD8B0D868B8A0F858A70E090700E
:101A80003E7C423EB571C4B566CCAA664890D84843
:101A900003060503F6F701F60E1C120E61C2A361E0
:101AA000356A5F3557AEF957B969D0B9861791864F
:101AB000C19958C11D3A271D9E27B99EE1D938E129
:101AC000F8EB13F8982BB3981122331169D2BB6944
:101AD000D9A970D98E07898E9433A7949B2DB69B74
:101AE0001E3C221E87159287E9C920E9CE8749CE80
:101AF00055AAFF5528507828DFA57ADF8C038F8CF4
:101B0000A159F8A1890980890D1A170DBF65DABF9F
:101B1000E6D731E64284C64268D0B8684182C34104
:101B20009929B0992D5A772D0F1E110FB07BCBB08C
:101B300054A8FC54BB6DD6BB162C3A166C2A3FD960
:0C1B40003AA7B417C5438D26A46195197F
:0400000508000627C2
:00000001FF
